{
  "_format": "hh-sol-artifact-1",
  "contractName": "GrassleyCollection",
  "sourceName": "contracts/GrassleyCollection.sol",
  "abi": [
    {
      "inputs": [],
      "stateMutability": "nonpayable",
      "type": "constructor"
    },
    {
      "anonymous": false,
      "inputs": [
        {
          "indexed": true,
          "internalType": "address",
          "name": "owner",
          "type": "address"
        },
        {
          "indexed": true,
          "internalType": "address",
          "name": "approved",
          "type": "address"
        },
        {
          "indexed": true,
          "internalType": "uint256",
          "name": "tokenId",
          "type": "uint256"
        }
      ],
      "name": "Approval",
      "type": "event"
    },
    {
      "anonymous": false,
      "inputs": [
        {
          "indexed": true,
          "internalType": "address",
          "name": "owner",
          "type": "address"
        },
        {
          "indexed": true,
          "internalType": "address",
          "name": "operator",
          "type": "address"
        },
        {
          "indexed": false,
          "internalType": "bool",
          "name": "approved",
          "type": "bool"
        }
      ],
      "name": "ApprovalForAll",
      "type": "event"
    },
    {
      "anonymous": false,
      "inputs": [
        {
          "indexed": false,
          "internalType": "address",
          "name": "sender",
          "type": "address"
        },
        {
          "indexed": false,
          "internalType": "uint256",
          "name": "tokenId",
          "type": "uint256"
        }
      ],
      "name": "NewIndividualBlessed",
      "type": "event"
    },
    {
      "anonymous": false,
      "inputs": [
        {
          "indexed": true,
          "internalType": "address",
          "name": "from",
          "type": "address"
        },
        {
          "indexed": true,
          "internalType": "address",
          "name": "to",
          "type": "address"
        },
        {
          "indexed": true,
          "internalType": "uint256",
          "name": "tokenId",
          "type": "uint256"
        }
      ],
      "name": "Transfer",
      "type": "event"
    },
    {
      "inputs": [
        {
          "internalType": "address",
          "name": "to",
          "type": "address"
        },
        {
          "internalType": "uint256",
          "name": "tokenId",
          "type": "uint256"
        }
      ],
      "name": "approve",
      "outputs": [],
      "stateMutability": "nonpayable",
      "type": "function"
    },
    {
      "inputs": [
        {
          "internalType": "address",
          "name": "owner",
          "type": "address"
        }
      ],
      "name": "balanceOf",
      "outputs": [
        {
          "internalType": "uint256",
          "name": "",
          "type": "uint256"
        }
      ],
      "stateMutability": "view",
      "type": "function"
    },
    {
      "inputs": [
        {
          "internalType": "uint256",
          "name": "tokenId",
          "type": "uint256"
        }
      ],
      "name": "getApproved",
      "outputs": [
        {
          "internalType": "address",
          "name": "",
          "type": "address"
        }
      ],
      "stateMutability": "view",
      "type": "function"
    },
    {
      "inputs": [],
      "name": "getBlessed",
      "outputs": [],
      "stateMutability": "nonpayable",
      "type": "function"
    },
    {
      "inputs": [],
      "name": "getCurrentTokens",
      "outputs": [
        {
          "internalType": "string",
          "name": "",
          "type": "string"
        }
      ],
      "stateMutability": "view",
      "type": "function"
    },
    {
      "inputs": [
        {
          "internalType": "address",
          "name": "owner",
          "type": "address"
        },
        {
          "internalType": "address",
          "name": "operator",
          "type": "address"
        }
      ],
      "name": "isApprovedForAll",
      "outputs": [
        {
          "internalType": "bool",
          "name": "",
          "type": "bool"
        }
      ],
      "stateMutability": "view",
      "type": "function"
    },
    {
      "inputs": [],
      "name": "name",
      "outputs": [
        {
          "internalType": "string",
          "name": "",
          "type": "string"
        }
      ],
      "stateMutability": "view",
      "type": "function"
    },
    {
      "inputs": [
        {
          "internalType": "uint256",
          "name": "tokenId",
          "type": "uint256"
        }
      ],
      "name": "ownerOf",
      "outputs": [
        {
          "internalType": "address",
          "name": "",
          "type": "address"
        }
      ],
      "stateMutability": "view",
      "type": "function"
    },
    {
      "inputs": [
        {
          "internalType": "uint256",
          "name": "tokenId",
          "type": "uint256"
        }
      ],
      "name": "pickRandomFirstWord",
      "outputs": [
        {
          "internalType": "string",
          "name": "",
          "type": "string"
        }
      ],
      "stateMutability": "view",
      "type": "function"
    },
    {
      "inputs": [
        {
          "internalType": "address",
          "name": "from",
          "type": "address"
        },
        {
          "internalType": "address",
          "name": "to",
          "type": "address"
        },
        {
          "internalType": "uint256",
          "name": "tokenId",
          "type": "uint256"
        }
      ],
      "name": "safeTransferFrom",
      "outputs": [],
      "stateMutability": "nonpayable",
      "type": "function"
    },
    {
      "inputs": [
        {
          "internalType": "address",
          "name": "from",
          "type": "address"
        },
        {
          "internalType": "address",
          "name": "to",
          "type": "address"
        },
        {
          "internalType": "uint256",
          "name": "tokenId",
          "type": "uint256"
        },
        {
          "internalType": "bytes",
          "name": "data",
          "type": "bytes"
        }
      ],
      "name": "safeTransferFrom",
      "outputs": [],
      "stateMutability": "nonpayable",
      "type": "function"
    },
    {
      "inputs": [
        {
          "internalType": "address",
          "name": "operator",
          "type": "address"
        },
        {
          "internalType": "bool",
          "name": "approved",
          "type": "bool"
        }
      ],
      "name": "setApprovalForAll",
      "outputs": [],
      "stateMutability": "nonpayable",
      "type": "function"
    },
    {
      "inputs": [
        {
          "internalType": "bytes4",
          "name": "interfaceId",
          "type": "bytes4"
        }
      ],
      "name": "supportsInterface",
      "outputs": [
        {
          "internalType": "bool",
          "name": "",
          "type": "bool"
        }
      ],
      "stateMutability": "view",
      "type": "function"
    },
    {
      "inputs": [],
      "name": "symbol",
      "outputs": [
        {
          "internalType": "string",
          "name": "",
          "type": "string"
        }
      ],
      "stateMutability": "view",
      "type": "function"
    },
    {
      "inputs": [
        {
          "internalType": "uint256",
          "name": "tokenId",
          "type": "uint256"
        }
      ],
      "name": "tokenURI",
      "outputs": [
        {
          "internalType": "string",
          "name": "",
          "type": "string"
        }
      ],
      "stateMutability": "view",
      "type": "function"
    },
    {
      "inputs": [
        {
          "internalType": "address",
          "name": "from",
          "type": "address"
        },
        {
          "internalType": "address",
          "name": "to",
          "type": "address"
        },
        {
          "internalType": "uint256",
          "name": "tokenId",
          "type": "uint256"
        }
      ],
      "name": "transferFrom",
      "outputs": [],
      "stateMutability": "nonpayable",
      "type": "function"
    }
  ],
  "bytecode": "0x6080604052606460085560405180610160016040528061012f815260200162003f0461012f91396009908162000036919062000918565b50604051806101e001604052806040518060400160405280600781526020017f426c65737365640000000000000000000000000000000000000000000000000081525081526020016040518060400160405280600581526020017f4f776e656400000000000000000000000000000000000000000000000000000081525081526020016040518060400160405280600681526020017f596565746564000000000000000000000000000000000000000000000000000081525081526020016040518060400160405280600781526020017f50756e636865640000000000000000000000000000000000000000000000000081525081526020016040518060400160405280600781526020017f426c6f636b65640000000000000000000000000000000000000000000000000081525081526020016040518060400160405280600681526020017f50756e746564000000000000000000000000000000000000000000000000000081525081526020016040518060400160405280600b81526020017f456e6c69676874656e656400000000000000000000000000000000000000000081525081526020016040518060400160405280600681526020017f53747275636b000000000000000000000000000000000000000000000000000081525081526020016040518060400160405280600681526020017f436f6f6b6564000000000000000000000000000000000000000000000000000081525081526020016040518060400160405280600681526020017f48656c706564000000000000000000000000000000000000000000000000000081525081526020016040518060400160405280600681526020017f437572736564000000000000000000000000000000000000000000000000000081525081526020016040518060400160405280600781526020017f49676e6f7265640000000000000000000000000000000000000000000000000081525081526020016040518060400160405280600681526020017f4368616e656c000000000000000000000000000000000000000000000000000081525081526020016040518060400160405280600881526020017f566572736163636900000000000000000000000000000000000000000000000081525081526020016040518060400160405280600a81526020017f42656c616e636961676100000000000000000000000000000000000000000000815250815250600a90600f620003c8929190620005b1565b506040518060400160405280600c81526020017f2042792047726173736c65790000000000000000000000000000000000000000815250600b90816200040f919062000918565b503480156200041d57600080fd5b506040518060400160405280601381526020017f426c65737365642062792047726173736c6579000000000000000000000000008152506040518060400160405280600781526020017f424c45535345440000000000000000000000000000000000000000000000000081525081600090816200049b919062000918565b508060019081620004ad919062000918565b505050620004df6040518060600160405280602d815260200162004033602d9139620004e560201b62000d5c1760201c565b62000ab2565b6200058581604051602401620004fc919062000a8e565b6040516020818303038152906040527f41304fac000000000000000000000000000000000000000000000000000000007bffffffffffffffffffffffffffffffffffffffffffffffffffffffff19166020820180517bffffffffffffffffffffffffffffffffffffffffffffffffffffffff83818316178352505050506200058860201b60201c565b50565b60008151905060006a636f6e736f6c652e6c6f679050602083016000808483855afa5050505050565b828054828255906000526020600020908101928215620005fe579160200282015b82811115620005fd578251829081620005ec919062000918565b5091602001919060010190620005d2565b5b5090506200060d919062000611565b5090565b5b808211156200063557600081816200062b919062000639565b5060010162000612565b5090565b508054620006479062000707565b6000825580601f106200065b57506200067c565b601f0160209004906000526020600020908101906200067b91906200067f565b5b50565b5b808211156200069a57600081600090555060010162000680565b5090565b600081519050919050565b7f4e487b7100000000000000000000000000000000000000000000000000000000600052604160045260246000fd5b7f4e487b7100000000000000000000000000000000000000000000000000000000600052602260045260246000fd5b600060028204905060018216806200072057607f821691505b602082108103620007365762000735620006d8565b5b50919050565b60008190508160005260206000209050919050565b60006020601f8301049050919050565b600082821b905092915050565b600060088302620007a07fffffffffffffffffffffffffffffffffffffffffffffffffffffffffffffffff8262000761565b620007ac868362000761565b95508019841693508086168417925050509392505050565b6000819050919050565b6000819050919050565b6000620007f9620007f3620007ed84620007c4565b620007ce565b620007c4565b9050919050565b6000819050919050565b6200081583620007d8565b6200082d620008248262000800565b8484546200076e565b825550505050565b600090565b6200084462000835565b620008518184846200080a565b505050565b5b8181101562000879576200086d6000826200083a565b60018101905062000857565b5050565b601f821115620008c85762000892816200073c565b6200089d8462000751565b81016020851015620008ad578190505b620008c5620008bc8562000751565b83018262000856565b50505b505050565b600082821c905092915050565b6000620008ed60001984600802620008cd565b1980831691505092915050565b6000620009088383620008da565b9150826002028217905092915050565b62000923826200069e565b67ffffffffffffffff8111156200093f576200093e620006a9565b5b6200094b825462000707565b620009588282856200087d565b600060209050601f8311600181146200099057600084156200097b578287015190505b620009878582620008fa565b865550620009f7565b601f198416620009a0866200073c565b60005b82811015620009ca57848901518255600182019150602085019450602081019050620009a3565b86831015620009ea5784890151620009e6601f891682620008da565b8355505b6001600288020188555050505b505050505050565b600082825260208201905092915050565b60005b8381101562000a3057808201518184015260208101905062000a13565b60008484015250505050565b6000601f19601f8301169050919050565b600062000a5a826200069e565b62000a668185620009ff565b935062000a7881856020860162000a10565b62000a838162000a3c565b840191505092915050565b6000602082019050818103600083015262000aaa818462000a4d565b905092915050565b6134428062000ac26000396000f3fe608060405234801561001057600080fd5b50600436106101005760003560e01c806370a0823111610097578063c87b56dd11610066578063c87b56dd146102bd578063cc77828d146102ed578063d6b3372f1461030b578063e985e9c51461031557610100565b806370a082311461023757806395d89b4114610267578063a22cb46514610285578063b88d4fde146102a157610100565b806323b872dd116100d357806323b872dd1461019f5780632de38d68146101bb57806342842e0e146101eb5780636352211e1461020757610100565b806301ffc9a71461010557806306fdde0314610135578063081812fc14610153578063095ea7b314610183575b600080fd5b61011f600480360381019061011a9190611d6f565b610345565b60405161012c9190611db7565b60405180910390f35b61013d610427565b60405161014a9190611e62565b60405180910390f35b61016d60048036038101906101689190611eba565b6104b9565b60405161017a9190611f28565b60405180910390f35b61019d60048036038101906101989190611f6f565b6104ff565b005b6101b960048036038101906101b49190611faf565b610616565b005b6101d560048036038101906101d09190611eba565b610676565b6040516101e29190611e62565b60405180910390f35b61020560048036038101906102009190611faf565b61076e565b005b610221600480360381019061021c9190611eba565b61078e565b60405161022e9190611f28565b60405180910390f35b610251600480360381019061024c9190612002565b61083f565b60405161025e919061203e565b60405180910390f35b61026f6108f6565b60405161027c9190611e62565b60405180910390f35b61029f600480360381019061029a9190612085565b610988565b005b6102bb60048036038101906102b691906121fa565b61099e565b005b6102d760048036038101906102d29190611eba565b610a00565b6040516102e49190611e62565b60405180910390f35b6102f5610b12565b6040516103029190611e62565b60405180910390f35b610313610b56565b005b61032f600480360381019061032a919061227d565b610cc8565b60405161033c9190611db7565b60405180910390f35b60007f80ac58cd000000000000000000000000000000000000000000000000000000007bffffffffffffffffffffffffffffffffffffffffffffffffffffffff1916827bffffffffffffffffffffffffffffffffffffffffffffffffffffffff1916148061041057507f5b5e139f000000000000000000000000000000000000000000000000000000007bffffffffffffffffffffffffffffffffffffffffffffffffffffffff1916827bffffffffffffffffffffffffffffffffffffffffffffffffffffffff1916145b80610420575061041f82610df5565b5b9050919050565b606060008054610436906122ec565b80601f0160208091040260200160405190810160405280929190818152602001828054610462906122ec565b80156104af5780601f10610484576101008083540402835291602001916104af565b820191906000526020600020905b81548152906001019060200180831161049257829003601f168201915b5050505050905090565b60006104c482610e5f565b6004600083815260200190815260200160002060009054906101000a900473ffffffffffffffffffffffffffffffffffffffff169050919050565b600061050a8261078e565b90508073ffffffffffffffffffffffffffffffffffffffff168373ffffffffffffffffffffffffffffffffffffffff160361057a576040517f08c379a00000000000000000000000000000000000000000000000000000000081526004016105719061238f565b60405180910390fd5b8073ffffffffffffffffffffffffffffffffffffffff16610599610eaa565b73ffffffffffffffffffffffffffffffffffffffff1614806105c857506105c7816105c2610eaa565b610cc8565b5b610607576040517f08c379a00000000000000000000000000000000000000000000000000000000081526004016105fe90612421565b60405180910390fd5b6106118383610eb2565b505050565b610627610621610eaa565b82610f6b565b610666576040517f08c379a000000000000000000000000000000000000000000000000000000000815260040161065d906124b3565b60405180910390fd5b610671838383611000565b505050565b606060006106aa61068684611266565b604051602001610696919061255b565b6040516020818303038152906040526113c6565b9050600a80549050816106bd91906125ac565b9050600a81815481106106d3576106d26125dd565b5b9060005260206000200180546106e8906122ec565b80601f0160208091040260200160405190810160405280929190818152602001828054610714906122ec565b80156107615780601f1061073657610100808354040283529160200191610761565b820191906000526020600020905b81548152906001019060200180831161074457829003601f168201915b5050505050915050919050565b6107898383836040518060200160405280600081525061099e565b505050565b6000806002600084815260200190815260200160002060009054906101000a900473ffffffffffffffffffffffffffffffffffffffff169050600073ffffffffffffffffffffffffffffffffffffffff168173ffffffffffffffffffffffffffffffffffffffff1603610836576040517f08c379a000000000000000000000000000000000000000000000000000000000815260040161082d90612658565b60405180910390fd5b80915050919050565b60008073ffffffffffffffffffffffffffffffffffffffff168273ffffffffffffffffffffffffffffffffffffffff16036108af576040517f08c379a00000000000000000000000000000000000000000000000000000000081526004016108a6906126ea565b60405180910390fd5b600360008373ffffffffffffffffffffffffffffffffffffffff1673ffffffffffffffffffffffffffffffffffffffff168152602001908152602001600020549050919050565b606060018054610905906122ec565b80601f0160208091040260200160405190810160405280929190818152602001828054610931906122ec565b801561097e5780601f106109535761010080835404028352916020019161097e565b820191906000526020600020905b81548152906001019060200180831161096157829003601f168201915b5050505050905090565b61099a610993610eaa565b83836113f9565b5050565b6109af6109a9610eaa565b83610f6b565b6109ee576040517f08c379a00000000000000000000000000000000000000000000000000000000081526004016109e5906124b3565b60405180910390fd5b6109fa84848484611565565b50505050565b6060610a0b82610e5f565b6000600660008481526020019081526020016000208054610a2b906122ec565b80601f0160208091040260200160405190810160405280929190818152602001828054610a57906122ec565b8015610aa45780601f10610a7957610100808354040283529160200191610aa4565b820191906000526020600020905b815481529060010190602001808311610a8757829003601f168201915b505050505090506000610ab56115c1565b90506000815103610aca578192505050610b0d565b600082511115610aff578082604051602001610ae792919061270a565b60405160208183030381529060405292505050610b0d565b610b08846115d8565b925050505b919050565b6060610b26610b216007611640565b611266565b610b31600854611266565b604051602001610b4292919061277a565b604051602081830303815290604052905090565b600854610b636007611640565b10610ba3576040517f08c379a0000000000000000000000000000000000000000000000000000000008152600401610b9a906127f5565b60405180910390fd5b6000610baf6007611640565b90506000610bbc82610676565b90506000600982600b604051602001610bd7939291906128f9565b6040516020818303038152906040529050600082600b604051602001610bfe929190612935565b60405160208183030381529060405290506000610c4382610c1e8561164e565b604051602001610c2f929190612aaf565b60405160208183030381529060405261164e565b9050600081604051602001610c589190612b40565b6040516020818303038152906040529050610c7333876117e5565b610c7d8682611803565b610c876007611870565b7f7e52a895000ba8d9d2c579c0a485b9e303ef63719fac4634c4ec61903cdc25643387604051610cb8929190612b62565b60405180910390a1505050505050565b6000600560008473ffffffffffffffffffffffffffffffffffffffff1673ffffffffffffffffffffffffffffffffffffffff16815260200190815260200160002060008373ffffffffffffffffffffffffffffffffffffffff1673ffffffffffffffffffffffffffffffffffffffff16815260200190815260200160002060009054906101000a900460ff16905092915050565b610df281604051602401610d709190611e62565b6040516020818303038152906040527f41304fac000000000000000000000000000000000000000000000000000000007bffffffffffffffffffffffffffffffffffffffffffffffffffffffff19166020820180517bffffffffffffffffffffffffffffffffffffffffffffffffffffffff8381831617835250505050611886565b50565b60007f01ffc9a7000000000000000000000000000000000000000000000000000000007bffffffffffffffffffffffffffffffffffffffffffffffffffffffff1916827bffffffffffffffffffffffffffffffffffffffffffffffffffffffff1916149050919050565b610e68816118af565b610ea7576040517f08c379a0000000000000000000000000000000000000000000000000000000008152600401610e9e90612658565b60405180910390fd5b50565b600033905090565b816004600083815260200190815260200160002060006101000a81548173ffffffffffffffffffffffffffffffffffffffff021916908373ffffffffffffffffffffffffffffffffffffffff160217905550808273ffffffffffffffffffffffffffffffffffffffff16610f258361078e565b73ffffffffffffffffffffffffffffffffffffffff167f8c5be1e5ebec7d5bd14f71427d1e84f3dd0314c0f7b2291e5b200ac8c7c3b92560405160405180910390a45050565b600080610f778361078e565b90508073ffffffffffffffffffffffffffffffffffffffff168473ffffffffffffffffffffffffffffffffffffffff161480610fb95750610fb88185610cc8565b5b80610ff757508373ffffffffffffffffffffffffffffffffffffffff16610fdf846104b9565b73ffffffffffffffffffffffffffffffffffffffff16145b91505092915050565b8273ffffffffffffffffffffffffffffffffffffffff166110208261078e565b73ffffffffffffffffffffffffffffffffffffffff1614611076576040517f08c379a000000000000000000000000000000000000000000000000000000000815260040161106d90612bfd565b60405180910390fd5b600073ffffffffffffffffffffffffffffffffffffffff168273ffffffffffffffffffffffffffffffffffffffff16036110e5576040517f08c379a00000000000000000000000000000000000000000000000000000000081526004016110dc90612c8f565b60405180910390fd5b6110f083838361191b565b6110fb600082610eb2565b6001600360008573ffffffffffffffffffffffffffffffffffffffff1673ffffffffffffffffffffffffffffffffffffffff168152602001908152602001600020600082825461114b9190612cde565b925050819055506001600360008473ffffffffffffffffffffffffffffffffffffffff1673ffffffffffffffffffffffffffffffffffffffff16815260200190815260200160002060008282546111a29190612d12565b92505081905550816002600083815260200190815260200160002060006101000a81548173ffffffffffffffffffffffffffffffffffffffff021916908373ffffffffffffffffffffffffffffffffffffffff160217905550808273ffffffffffffffffffffffffffffffffffffffff168473ffffffffffffffffffffffffffffffffffffffff167fddf252ad1be2c89b69c2b068fc378daa952ba7f163c4a11628f55a4df523b3ef60405160405180910390a4611261838383611920565b505050565b6060600082036112ad576040518060400160405280600181526020017f300000000000000000000000000000000000000000000000000000000000000081525090506113c1565b600082905060005b600082146112df5780806112c890612d46565b915050600a826112d89190612d8e565b91506112b5565b60008167ffffffffffffffff8111156112fb576112fa6120cf565b5b6040519080825280601f01601f19166020018201604052801561132d5781602001600182028036833780820191505090505b5090505b600085146113ba576001826113469190612cde565b9150600a8561135591906125ac565b60306113619190612d12565b60f81b818381518110611377576113766125dd565b5b60200101907effffffffffffffffffffffffffffffffffffffffffffffffffffffffffffff1916908160001a905350600a856113b39190612d8e565b9450611331565b8093505050505b919050565b6000816040516020016113d99190612dbf565b6040516020818303038152906040528051906020012060001c9050919050565b8173ffffffffffffffffffffffffffffffffffffffff168373ffffffffffffffffffffffffffffffffffffffff1603611467576040517f08c379a000000000000000000000000000000000000000000000000000000000815260040161145e90612e22565b60405180910390fd5b80600560008573ffffffffffffffffffffffffffffffffffffffff1673ffffffffffffffffffffffffffffffffffffffff16815260200190815260200160002060008473ffffffffffffffffffffffffffffffffffffffff1673ffffffffffffffffffffffffffffffffffffffff16815260200190815260200160002060006101000a81548160ff0219169083151502179055508173ffffffffffffffffffffffffffffffffffffffff168373ffffffffffffffffffffffffffffffffffffffff167f17307eab39ab6107e8899845ad3d59bd9653f200f220920489ca2b5937696c31836040516115589190611db7565b60405180910390a3505050565b611570848484611000565b61157c84848484611925565b6115bb576040517f08c379a00000000000000000000000000000000000000000000000000000000081526004016115b290612eb4565b60405180910390fd5b50505050565b606060405180602001604052806000815250905090565b60606115e382610e5f565b60006115ed6115c1565b9050600081511161160d5760405180602001604052806000815250611638565b8061161784611266565b60405160200161162892919061270a565b6040516020818303038152906040525b915050919050565b600081600001549050919050565b60606000825190506000810361167657604051806020016040528060008152509150506117e0565b600060036002836116879190612d12565b6116919190612d8e565b600461169d9190612ed4565b905060006020826116ae9190612d12565b67ffffffffffffffff8111156116c7576116c66120cf565b5b6040519080825280601f01601f1916602001820160405280156116f95781602001600182028036833780820191505090505b50905060006040518060600160405280604081526020016133cd604091399050600181016020830160005b8681101561179d5760038101905062ffffff818a015116603f8160121c168401518060081b905060ff603f83600c1c1686015116810190508060081b905060ff603f8360061c1686015116810190508060081b905060ff603f831686015116810190508060e01b90508084526004840193505050611724565b5060038606600181146117b757600281146117c7576117d2565b613d3d60f01b60028303526117d2565b603d60f81b60018303525b508484525050819450505050505b919050565b6117ff828260405180602001604052806000815250611aac565b5050565b61180c826118af565b61184b576040517f08c379a000000000000000000000000000000000000000000000000000000000815260040161184290612f88565b60405180910390fd5b8060066000848152602001908152602001600020908161186b919061313f565b505050565b6001816000016000828254019250508190555050565b60008151905060006a636f6e736f6c652e6c6f679050602083016000808483855afa5050505050565b60008073ffffffffffffffffffffffffffffffffffffffff166002600084815260200190815260200160002060009054906101000a900473ffffffffffffffffffffffffffffffffffffffff1673ffffffffffffffffffffffffffffffffffffffff1614159050919050565b505050565b505050565b60006119468473ffffffffffffffffffffffffffffffffffffffff16611b07565b15611a9f578373ffffffffffffffffffffffffffffffffffffffff1663150b7a0261196f610eaa565b8786866040518563ffffffff1660e01b81526004016119919493929190613266565b6020604051808303816000875af19250505080156119cd57506040513d601f19601f820116820180604052508101906119ca91906132c7565b60015b611a4f573d80600081146119fd576040519150601f19603f3d011682016040523d82523d6000602084013e611a02565b606091505b506000815103611a47576040517f08c379a0000000000000000000000000000000000000000000000000000000008152600401611a3e90612eb4565b60405180910390fd5b805181602001fd5b63150b7a0260e01b7bffffffffffffffffffffffffffffffffffffffffffffffffffffffff1916817bffffffffffffffffffffffffffffffffffffffffffffffffffffffff191614915050611aa4565b600190505b949350505050565b611ab68383611b2a565b611ac36000848484611925565b611b02576040517f08c379a0000000000000000000000000000000000000000000000000000000008152600401611af990612eb4565b60405180910390fd5b505050565b6000808273ffffffffffffffffffffffffffffffffffffffff163b119050919050565b600073ffffffffffffffffffffffffffffffffffffffff168273ffffffffffffffffffffffffffffffffffffffff1603611b99576040517f08c379a0000000000000000000000000000000000000000000000000000000008152600401611b9090613340565b60405180910390fd5b611ba2816118af565b15611be2576040517f08c379a0000000000000000000000000000000000000000000000000000000008152600401611bd9906133ac565b60405180910390fd5b611bee6000838361191b565b6001600360008473ffffffffffffffffffffffffffffffffffffffff1673ffffffffffffffffffffffffffffffffffffffff1681526020019081526020016000206000828254611c3e9190612d12565b92505081905550816002600083815260200190815260200160002060006101000a81548173ffffffffffffffffffffffffffffffffffffffff021916908373ffffffffffffffffffffffffffffffffffffffff160217905550808273ffffffffffffffffffffffffffffffffffffffff16600073ffffffffffffffffffffffffffffffffffffffff167fddf252ad1be2c89b69c2b068fc378daa952ba7f163c4a11628f55a4df523b3ef60405160405180910390a4611cff60008383611920565b5050565b6000604051905090565b600080fd5b600080fd5b60007fffffffff0000000000000000000000000000000000000000000000000000000082169050919050565b611d4c81611d17565b8114611d5757600080fd5b50565b600081359050611d6981611d43565b92915050565b600060208284031215611d8557611d84611d0d565b5b6000611d9384828501611d5a565b91505092915050565b60008115159050919050565b611db181611d9c565b82525050565b6000602082019050611dcc6000830184611da8565b92915050565b600081519050919050565b600082825260208201905092915050565b60005b83811015611e0c578082015181840152602081019050611df1565b60008484015250505050565b6000601f19601f8301169050919050565b6000611e3482611dd2565b611e3e8185611ddd565b9350611e4e818560208601611dee565b611e5781611e18565b840191505092915050565b60006020820190508181036000830152611e7c8184611e29565b905092915050565b6000819050919050565b611e9781611e84565b8114611ea257600080fd5b50565b600081359050611eb481611e8e565b92915050565b600060208284031215611ed057611ecf611d0d565b5b6000611ede84828501611ea5565b91505092915050565b600073ffffffffffffffffffffffffffffffffffffffff82169050919050565b6000611f1282611ee7565b9050919050565b611f2281611f07565b82525050565b6000602082019050611f3d6000830184611f19565b92915050565b611f4c81611f07565b8114611f5757600080fd5b50565b600081359050611f6981611f43565b92915050565b60008060408385031215611f8657611f85611d0d565b5b6000611f9485828601611f5a565b9250506020611fa585828601611ea5565b9150509250929050565b600080600060608486031215611fc857611fc7611d0d565b5b6000611fd686828701611f5a565b9350506020611fe786828701611f5a565b9250506040611ff886828701611ea5565b9150509250925092565b60006020828403121561201857612017611d0d565b5b600061202684828501611f5a565b91505092915050565b61203881611e84565b82525050565b6000602082019050612053600083018461202f565b92915050565b61206281611d9c565b811461206d57600080fd5b50565b60008135905061207f81612059565b92915050565b6000806040838503121561209c5761209b611d0d565b5b60006120aa85828601611f5a565b92505060206120bb85828601612070565b9150509250929050565b600080fd5b600080fd5b7f4e487b7100000000000000000000000000000000000000000000000000000000600052604160045260246000fd5b61210782611e18565b810181811067ffffffffffffffff82111715612126576121256120cf565b5b80604052505050565b6000612139611d03565b905061214582826120fe565b919050565b600067ffffffffffffffff821115612165576121646120cf565b5b61216e82611e18565b9050602081019050919050565b82818337600083830152505050565b600061219d6121988461214a565b61212f565b9050828152602081018484840111156121b9576121b86120ca565b5b6121c484828561217b565b509392505050565b600082601f8301126121e1576121e06120c5565b5b81356121f184826020860161218a565b91505092915050565b6000806000806080858703121561221457612213611d0d565b5b600061222287828801611f5a565b945050602061223387828801611f5a565b935050604061224487828801611ea5565b925050606085013567ffffffffffffffff81111561226557612264611d12565b5b612271878288016121cc565b91505092959194509250565b6000806040838503121561229457612293611d0d565b5b60006122a285828601611f5a565b92505060206122b385828601611f5a565b9150509250929050565b7f4e487b7100000000000000000000000000000000000000000000000000000000600052602260045260246000fd5b6000600282049050600182168061230457607f821691505b602082108103612317576123166122bd565b5b50919050565b7f4552433732313a20617070726f76616c20746f2063757272656e74206f776e6560008201527f7200000000000000000000000000000000000000000000000000000000000000602082015250565b6000612379602183611ddd565b91506123848261231d565b604082019050919050565b600060208201905081810360008301526123a88161236c565b9050919050565b7f4552433732313a20617070726f76652063616c6c6572206973206e6f7420746f60008201527f6b656e206f776e6572206e6f7220617070726f76656420666f7220616c6c0000602082015250565b600061240b603e83611ddd565b9150612416826123af565b604082019050919050565b6000602082019050818103600083015261243a816123fe565b9050919050565b7f4552433732313a2063616c6c6572206973206e6f7420746f6b656e206f776e6560008201527f72206e6f7220617070726f766564000000000000000000000000000000000000602082015250565b600061249d602e83611ddd565b91506124a882612441565b604082019050919050565b600060208201905081810360008301526124cc81612490565b9050919050565b600081905092915050565b7f424c455353454400000000000000000000000000000000000000000000000000600082015250565b60006125146007836124d3565b915061251f826124de565b600782019050919050565b600061253582611dd2565b61253f81856124d3565b935061254f818560208601611dee565b80840191505092915050565b600061256682612507565b9150612572828461252a565b915081905092915050565b7f4e487b7100000000000000000000000000000000000000000000000000000000600052601260045260246000fd5b60006125b782611e84565b91506125c283611e84565b9250826125d2576125d161257d565b5b828206905092915050565b7f4e487b7100000000000000000000000000000000000000000000000000000000600052603260045260246000fd5b7f4552433732313a20696e76616c696420746f6b656e2049440000000000000000600082015250565b6000612642601883611ddd565b915061264d8261260c565b602082019050919050565b6000602082019050818103600083015261267181612635565b9050919050565b7f4552433732313a2061646472657373207a65726f206973206e6f74206120766160008201527f6c6964206f776e65720000000000000000000000000000000000000000000000602082015250565b60006126d4602983611ddd565b91506126df82612678565b604082019050919050565b60006020820190508181036000830152612703816126c7565b9050919050565b6000612716828561252a565b9150612722828461252a565b91508190509392505050565b7f202f200000000000000000000000000000000000000000000000000000000000600082015250565b60006127646003836124d3565b915061276f8261272e565b600382019050919050565b6000612786828561252a565b915061279182612757565b915061279d828461252a565b91508190509392505050565b7f4d617820746f6b656e73206d696e746564000000000000000000000000000000600082015250565b60006127df601183611ddd565b91506127ea826127a9565b602082019050919050565b6000602082019050818103600083015261280e816127d2565b9050919050565b60008190508160005260206000209050919050565b60008154612837816122ec565b61284181866124d3565b9450600182166000811461285c5760018114612871576128a4565b60ff19831686528115158202860193506128a4565b61287a85612815565b60005b8381101561289c5781548189015260018201915060208101905061287d565b838801955050505b50505092915050565b7f3c2f746578743e3c2f7376673e00000000000000000000000000000000000000600082015250565b60006128e3600d836124d3565b91506128ee826128ad565b600d82019050919050565b6000612905828661282a565b9150612911828561252a565b915061291d828461282a565b9150612928826128d6565b9150819050949350505050565b6000612941828561252a565b915061294d828461282a565b91508190509392505050565b7f7b226e616d65223a202200000000000000000000000000000000000000000000600082015250565b600061298f600a836124d3565b915061299a82612959565b600a82019050919050565b7f222c20226465736372697074696f6e223a20224120686967686c79206163636c60008201527f61696d656420636f6c6c656374696f6e206f662076657262732e222c2022696d60208201527f616765223a2022646174613a696d6167652f7376672b786d6c3b62617365363460408201527f2c00000000000000000000000000000000000000000000000000000000000000606082015250565b6000612a4d6061836124d3565b9150612a58826129a5565b606182019050919050565b7f227d000000000000000000000000000000000000000000000000000000000000600082015250565b6000612a996002836124d3565b9150612aa482612a63565b600282019050919050565b6000612aba82612982565b9150612ac6828561252a565b9150612ad182612a40565b9150612add828461252a565b9150612ae882612a8c565b91508190509392505050565b7f646174613a6170706c69636174696f6e2f6a736f6e3b6261736536342c000000600082015250565b6000612b2a601d836124d3565b9150612b3582612af4565b601d82019050919050565b6000612b4b82612b1d565b9150612b57828461252a565b915081905092915050565b6000604082019050612b776000830185611f19565b612b84602083018461202f565b9392505050565b7f4552433732313a207472616e736665722066726f6d20696e636f72726563742060008201527f6f776e6572000000000000000000000000000000000000000000000000000000602082015250565b6000612be7602583611ddd565b9150612bf282612b8b565b604082019050919050565b60006020820190508181036000830152612c1681612bda565b9050919050565b7f4552433732313a207472616e7366657220746f20746865207a65726f2061646460008201527f7265737300000000000000000000000000000000000000000000000000000000602082015250565b6000612c79602483611ddd565b9150612c8482612c1d565b604082019050919050565b60006020820190508181036000830152612ca881612c6c565b9050919050565b7f4e487b7100000000000000000000000000000000000000000000000000000000600052601160045260246000fd5b6000612ce982611e84565b9150612cf483611e84565b9250828203905081811115612d0c57612d0b612caf565b5b92915050565b6000612d1d82611e84565b9150612d2883611e84565b9250828201905080821115612d4057612d3f612caf565b5b92915050565b6000612d5182611e84565b91507fffffffffffffffffffffffffffffffffffffffffffffffffffffffffffffffff8203612d8357612d82612caf565b5b600182019050919050565b6000612d9982611e84565b9150612da483611e84565b925082612db457612db361257d565b5b828204905092915050565b6000612dcb828461252a565b915081905092915050565b7f4552433732313a20617070726f766520746f2063616c6c657200000000000000600082015250565b6000612e0c601983611ddd565b9150612e1782612dd6565b602082019050919050565b60006020820190508181036000830152612e3b81612dff565b9050919050565b7f4552433732313a207472616e7366657220746f206e6f6e20455243373231526560008201527f63656976657220696d706c656d656e7465720000000000000000000000000000602082015250565b6000612e9e603283611ddd565b9150612ea982612e42565b604082019050919050565b60006020820190508181036000830152612ecd81612e91565b9050919050565b6000612edf82611e84565b9150612eea83611e84565b9250828202612ef881611e84565b91508282048414831517612f0f57612f0e612caf565b5b5092915050565b7f45524337323155524953746f726167653a2055524920736574206f66206e6f6e60008201527f6578697374656e7420746f6b656e000000000000000000000000000000000000602082015250565b6000612f72602e83611ddd565b9150612f7d82612f16565b604082019050919050565b60006020820190508181036000830152612fa181612f65565b9050919050565b60006020601f8301049050919050565b600082821b905092915050565b600060088302612ff57fffffffffffffffffffffffffffffffffffffffffffffffffffffffffffffffff82612fb8565b612fff8683612fb8565b95508019841693508086168417925050509392505050565b6000819050919050565b600061303c61303761303284611e84565b613017565b611e84565b9050919050565b6000819050919050565b61305683613021565b61306a61306282613043565b848454612fc5565b825550505050565b600090565b61307f613072565b61308a81848461304d565b505050565b5b818110156130ae576130a3600082613077565b600181019050613090565b5050565b601f8211156130f3576130c481612815565b6130cd84612fa8565b810160208510156130dc578190505b6130f06130e885612fa8565b83018261308f565b50505b505050565b600082821c905092915050565b6000613116600019846008026130f8565b1980831691505092915050565b600061312f8383613105565b9150826002028217905092915050565b61314882611dd2565b67ffffffffffffffff811115613161576131606120cf565b5b61316b82546122ec565b6131768282856130b2565b600060209050601f8311600181146131a95760008415613197578287015190505b6131a18582613123565b865550613209565b601f1984166131b786612815565b60005b828110156131df578489015182556001820191506020850194506020810190506131ba565b868310156131fc57848901516131f8601f891682613105565b8355505b6001600288020188555050505b505050505050565b600081519050919050565b600082825260208201905092915050565b600061323882613211565b613242818561321c565b9350613252818560208601611dee565b61325b81611e18565b840191505092915050565b600060808201905061327b6000830187611f19565b6132886020830186611f19565b613295604083018561202f565b81810360608301526132a7818461322d565b905095945050505050565b6000815190506132c181611d43565b92915050565b6000602082840312156132dd576132dc611d0d565b5b60006132eb848285016132b2565b91505092915050565b7f4552433732313a206d696e7420746f20746865207a65726f2061646472657373600082015250565b600061332a602083611ddd565b9150613335826132f4565b602082019050919050565b600060208201905081810360008301526133598161331d565b9050919050565b7f4552433732313a20746f6b656e20616c7265616479206d696e74656400000000600082015250565b6000613396601c83611ddd565b91506133a182613360565b602082019050919050565b600060208201905081810360008301526133c581613389565b905091905056fe4142434445464748494a4b4c4d4e4f505152535455565758595a6162636465666768696a6b6c6d6e6f707172737475767778797a303132333435363738392b2fa2646970667358221220becf2b449ca57d7adc345d279481b90f808e46400085637a8e031c8e593758cf64736f6c634300081100333c73766720786d6c6e733d27687474703a2f2f7777772e77332e6f72672f323030302f73766727207072657365727665417370656374526174696f3d27784d696e594d696e206d656574272076696577426f783d273020302033353020333530273e3c7374796c653e2e62617365207b2066696c6c3a2077686974653b20666f6e742d66616d696c793a2073657269663b20666f6e742d73697a653a20323470783b207d3c2f7374796c653e3c726563742077696474683d273130302527206865696768743d2731303025272066696c6c3d27626c61636b27202f3e3c7465787420783d273530252720793d273530252720636c6173733d27626173652720646f6d696e616e742d626173656c696e653d276d6964646c652720746578742d616e63686f723d276d6964646c65273e5468697320697320746865206e667420636f6e747261637420636f6e7374727563746f722c204c696e65203137",
  "linkReferences": {},
  "deployedLinkReferences": {}
}