{
  "_format": "hh-sol-artifact-1",
  "contractName": "GrassleyCollection",
  "sourceName": "contracts/GrassleyCollection.sol",
  "abi": [
    {
      "inputs": [],
      "stateMutability": "nonpayable",
      "type": "constructor"
    },
    {
      "anonymous": false,
      "inputs": [
        {
          "indexed": true,
          "internalType": "address",
          "name": "owner",
          "type": "address"
        },
        {
          "indexed": true,
          "internalType": "address",
          "name": "approved",
          "type": "address"
        },
        {
          "indexed": true,
          "internalType": "uint256",
          "name": "tokenId",
          "type": "uint256"
        }
      ],
      "name": "Approval",
      "type": "event"
    },
    {
      "anonymous": false,
      "inputs": [
        {
          "indexed": true,
          "internalType": "address",
          "name": "owner",
          "type": "address"
        },
        {
          "indexed": true,
          "internalType": "address",
          "name": "operator",
          "type": "address"
        },
        {
          "indexed": false,
          "internalType": "bool",
          "name": "approved",
          "type": "bool"
        }
      ],
      "name": "ApprovalForAll",
      "type": "event"
    },
    {
      "anonymous": false,
      "inputs": [
        {
          "indexed": false,
          "internalType": "address",
          "name": "sender",
          "type": "address"
        },
        {
          "indexed": false,
          "internalType": "uint256",
          "name": "tokenId",
          "type": "uint256"
        }
      ],
      "name": "NewIndividualBlessed",
      "type": "event"
    },
    {
      "anonymous": false,
      "inputs": [
        {
          "indexed": true,
          "internalType": "address",
          "name": "from",
          "type": "address"
        },
        {
          "indexed": true,
          "internalType": "address",
          "name": "to",
          "type": "address"
        },
        {
          "indexed": true,
          "internalType": "uint256",
          "name": "tokenId",
          "type": "uint256"
        }
      ],
      "name": "Transfer",
      "type": "event"
    },
    {
      "inputs": [
        {
          "internalType": "address",
          "name": "to",
          "type": "address"
        },
        {
          "internalType": "uint256",
          "name": "tokenId",
          "type": "uint256"
        }
      ],
      "name": "approve",
      "outputs": [],
      "stateMutability": "nonpayable",
      "type": "function"
    },
    {
      "inputs": [
        {
          "internalType": "address",
          "name": "owner",
          "type": "address"
        }
      ],
      "name": "balanceOf",
      "outputs": [
        {
          "internalType": "uint256",
          "name": "",
          "type": "uint256"
        }
      ],
      "stateMutability": "view",
      "type": "function"
    },
    {
      "inputs": [
        {
          "internalType": "uint256",
          "name": "tokenId",
          "type": "uint256"
        }
      ],
      "name": "getApproved",
      "outputs": [
        {
          "internalType": "address",
          "name": "",
          "type": "address"
        }
      ],
      "stateMutability": "view",
      "type": "function"
    },
    {
      "inputs": [],
      "name": "getBlessed",
      "outputs": [],
      "stateMutability": "nonpayable",
      "type": "function"
    },
    {
      "inputs": [],
      "name": "getCurrentTokens",
      "outputs": [
        {
          "internalType": "string",
          "name": "",
          "type": "string"
        }
      ],
      "stateMutability": "view",
      "type": "function"
    },
    {
      "inputs": [
        {
          "internalType": "address",
          "name": "owner",
          "type": "address"
        },
        {
          "internalType": "address",
          "name": "operator",
          "type": "address"
        }
      ],
      "name": "isApprovedForAll",
      "outputs": [
        {
          "internalType": "bool",
          "name": "",
          "type": "bool"
        }
      ],
      "stateMutability": "view",
      "type": "function"
    },
    {
      "inputs": [],
      "name": "name",
      "outputs": [
        {
          "internalType": "string",
          "name": "",
          "type": "string"
        }
      ],
      "stateMutability": "view",
      "type": "function"
    },
    {
      "inputs": [
        {
          "internalType": "uint256",
          "name": "tokenId",
          "type": "uint256"
        }
      ],
      "name": "ownerOf",
      "outputs": [
        {
          "internalType": "address",
          "name": "",
          "type": "address"
        }
      ],
      "stateMutability": "view",
      "type": "function"
    },
    {
      "inputs": [
        {
          "internalType": "uint256",
          "name": "tokenId",
          "type": "uint256"
        }
      ],
      "name": "pickRandomColor",
      "outputs": [
        {
          "internalType": "string",
          "name": "",
          "type": "string"
        }
      ],
      "stateMutability": "view",
      "type": "function"
    },
    {
      "inputs": [
        {
          "internalType": "uint256",
          "name": "tokenId",
          "type": "uint256"
        }
      ],
      "name": "pickRandomFirstWord",
      "outputs": [
        {
          "internalType": "string",
          "name": "",
          "type": "string"
        }
      ],
      "stateMutability": "view",
      "type": "function"
    },
    {
      "inputs": [
        {
          "internalType": "address",
          "name": "from",
          "type": "address"
        },
        {
          "internalType": "address",
          "name": "to",
          "type": "address"
        },
        {
          "internalType": "uint256",
          "name": "tokenId",
          "type": "uint256"
        }
      ],
      "name": "safeTransferFrom",
      "outputs": [],
      "stateMutability": "nonpayable",
      "type": "function"
    },
    {
      "inputs": [
        {
          "internalType": "address",
          "name": "from",
          "type": "address"
        },
        {
          "internalType": "address",
          "name": "to",
          "type": "address"
        },
        {
          "internalType": "uint256",
          "name": "tokenId",
          "type": "uint256"
        },
        {
          "internalType": "bytes",
          "name": "data",
          "type": "bytes"
        }
      ],
      "name": "safeTransferFrom",
      "outputs": [],
      "stateMutability": "nonpayable",
      "type": "function"
    },
    {
      "inputs": [
        {
          "internalType": "address",
          "name": "operator",
          "type": "address"
        },
        {
          "internalType": "bool",
          "name": "approved",
          "type": "bool"
        }
      ],
      "name": "setApprovalForAll",
      "outputs": [],
      "stateMutability": "nonpayable",
      "type": "function"
    },
    {
      "inputs": [
        {
          "internalType": "bytes4",
          "name": "interfaceId",
          "type": "bytes4"
        }
      ],
      "name": "supportsInterface",
      "outputs": [
        {
          "internalType": "bool",
          "name": "",
          "type": "bool"
        }
      ],
      "stateMutability": "view",
      "type": "function"
    },
    {
      "inputs": [],
      "name": "symbol",
      "outputs": [
        {
          "internalType": "string",
          "name": "",
          "type": "string"
        }
      ],
      "stateMutability": "view",
      "type": "function"
    },
    {
      "inputs": [
        {
          "internalType": "uint256",
          "name": "tokenId",
          "type": "uint256"
        }
      ],
      "name": "tokenURI",
      "outputs": [
        {
          "internalType": "string",
          "name": "",
          "type": "string"
        }
      ],
      "stateMutability": "view",
      "type": "function"
    },
    {
      "inputs": [
        {
          "internalType": "address",
          "name": "from",
          "type": "address"
        },
        {
          "internalType": "address",
          "name": "to",
          "type": "address"
        },
        {
          "internalType": "uint256",
          "name": "tokenId",
          "type": "uint256"
        }
      ],
      "name": "transferFrom",
      "outputs": [],
      "stateMutability": "nonpayable",
      "type": "function"
    }
  ],
  "bytecode": "0x6080604052606460085560405180610100016040528060d381526020016200441d60d391396009908162000034919062000c63565b50604051806080016040528060568152602001620044f060569139600a90816200005f919062000c63565b506040518061024001604052806040518060400160405280600781526020017f426c65737365640000000000000000000000000000000000000000000000000081525081526020016040518060400160405280600581526020017f4f776e656400000000000000000000000000000000000000000000000000000081525081526020016040518060400160405280600681526020017f596565746564000000000000000000000000000000000000000000000000000081525081526020016040518060400160405280600781526020017f50756e636865640000000000000000000000000000000000000000000000000081525081526020016040518060400160405280600781526020017f426c6f636b65640000000000000000000000000000000000000000000000000081525081526020016040518060400160405280600b81526020017f456e6c69676874656e656400000000000000000000000000000000000000000081525081526020016040518060400160405280600681526020017f53747275636b000000000000000000000000000000000000000000000000000081525081526020016040518060400160405280600681526020017f436f6f6b6564000000000000000000000000000000000000000000000000000081525081526020016040518060400160405280600681526020017f48656c706564000000000000000000000000000000000000000000000000000081525081526020016040518060400160405280600681526020017f437572736564000000000000000000000000000000000000000000000000000081525081526020016040518060400160405280600781526020017f49676e6f7265640000000000000000000000000000000000000000000000000081525081526020016040518060400160405280600681526020017f4368616e656c000000000000000000000000000000000000000000000000000081525081526020016040518060400160405280600881526020017f566572736163636900000000000000000000000000000000000000000000000081525081526020016040518060400160405280600a81526020017f42616c656e63696167610000000000000000000000000000000000000000000081525081526020016040518060400160405280600481526020017f44696f720000000000000000000000000000000000000000000000000000000081525081526020016040518060400160405280600681526020017f4b69636b6564000000000000000000000000000000000000000000000000000081525081526020016040518060400160405280600c81526020017f42616e2d48616d6d65726564000000000000000000000000000000000000000081525081526020016040518060400160405280600881526020017f57616c6c6f706564000000000000000000000000000000000000000000000000815250815250600b906012620004a29291906200089c565b506040518060400160405280600c81526020017f2042792047726173736c65790000000000000000000000000000000000000000815250600c9081620004e9919062000c63565b506040518061010001604052806040518060400160405280600781526020017f236638616330630000000000000000000000000000000000000000000000000081525081526020016040518060400160405280600781526020017f236131383035330000000000000000000000000000000000000000000000000081525081526020016040518060400160405280600781526020017f236666656463620000000000000000000000000000000000000000000000000081525081526020016040518060400160405280600781526020017f233030353234380000000000000000000000000000000000000000000000000081525081526020016040518060400160405280600781526020017f236665383938300000000000000000000000000000000000000000000000000081525081526020016040518060400160405280600781526020017f236666663765380000000000000000000000000000000000000000000000000081525081526020016040518060400160405280600781526020017f233030633466660000000000000000000000000000000000000000000000000081525081526020016040518060400160405280600781526020017f2330306462393800000000000000000000000000000000000000000000000000815250815250600d906008620006de929190620008fc565b50348015620006ec57600080fd5b506040518060400160405280601381526020017f426c65737365642062792047726173736c6579000000000000000000000000008152506040518060400160405280600781526020017f424c45535345440000000000000000000000000000000000000000000000000081525081600090816200076a919062000c63565b5080600190816200077c919062000c63565b505050620007ca6040518060400160405280600d81526020017f48656c6c6f2c20576f726c642100000000000000000000000000000000000000815250620007d060201b62000ea21760201c565b62000dfd565b6200087081604051602401620007e7919062000dd9565b6040516020818303038152906040527f41304fac000000000000000000000000000000000000000000000000000000007bffffffffffffffffffffffffffffffffffffffffffffffffffffffff19166020820180517bffffffffffffffffffffffffffffffffffffffffffffffffffffffff83818316178352505050506200087360201b60201c565b50565b60008151905060006a636f6e736f6c652e6c6f679050602083016000808483855afa5050505050565b828054828255906000526020600020908101928215620008e9579160200282015b82811115620008e8578251829081620008d7919062000c63565b5091602001919060010190620008bd565b5b509050620008f891906200095c565b5090565b82805482825590600052602060002090810192821562000949579160200282015b828111156200094857825182908162000937919062000c63565b50916020019190600101906200091d565b5b5090506200095891906200095c565b5090565b5b8082111562000980576000818162000976919062000984565b506001016200095d565b5090565b508054620009929062000a52565b6000825580601f10620009a65750620009c7565b601f016020900490600052602060002090810190620009c69190620009ca565b5b50565b5b80821115620009e5576000816000905550600101620009cb565b5090565b600081519050919050565b7f4e487b7100000000000000000000000000000000000000000000000000000000600052604160045260246000fd5b7f4e487b7100000000000000000000000000000000000000000000000000000000600052602260045260246000fd5b6000600282049050600182168062000a6b57607f821691505b60208210810362000a815762000a8062000a23565b5b50919050565b60008190508160005260206000209050919050565b60006020601f8301049050919050565b600082821b905092915050565b60006008830262000aeb7fffffffffffffffffffffffffffffffffffffffffffffffffffffffffffffffff8262000aac565b62000af7868362000aac565b95508019841693508086168417925050509392505050565b6000819050919050565b6000819050919050565b600062000b4462000b3e62000b388462000b0f565b62000b19565b62000b0f565b9050919050565b6000819050919050565b62000b608362000b23565b62000b7862000b6f8262000b4b565b84845462000ab9565b825550505050565b600090565b62000b8f62000b80565b62000b9c81848462000b55565b505050565b5b8181101562000bc45762000bb860008262000b85565b60018101905062000ba2565b5050565b601f82111562000c135762000bdd8162000a87565b62000be88462000a9c565b8101602085101562000bf8578190505b62000c1062000c078562000a9c565b83018262000ba1565b50505b505050565b600082821c905092915050565b600062000c386000198460080262000c18565b1980831691505092915050565b600062000c53838362000c25565b9150826002028217905092915050565b62000c6e82620009e9565b67ffffffffffffffff81111562000c8a5762000c89620009f4565b5b62000c96825462000a52565b62000ca382828562000bc8565b600060209050601f83116001811462000cdb576000841562000cc6578287015190505b62000cd2858262000c45565b86555062000d42565b601f19841662000ceb8662000a87565b60005b8281101562000d155784890151825560018201915060208501945060208101905062000cee565b8683101562000d35578489015162000d31601f89168262000c25565b8355505b6001600288020188555050505b505050505050565b600082825260208201905092915050565b60005b8381101562000d7b57808201518184015260208101905062000d5e565b60008484015250505050565b6000601f19601f8301169050919050565b600062000da582620009e9565b62000db1818562000d4a565b935062000dc381856020860162000d5b565b62000dce8162000d87565b840191505092915050565b6000602082019050818103600083015262000df5818462000d98565b905092915050565b6136108062000e0d6000396000f3fe608060405234801561001057600080fd5b506004361061010b5760003560e01c80636352211e116100a2578063b88d4fde11610071578063b88d4fde146102dc578063c87b56dd146102f8578063cc77828d14610328578063d6b3372f14610346578063e985e9c5146103505761010b565b80636352211e1461024257806370a082311461027257806395d89b41146102a2578063a22cb465146102c05761010b565b806323b872dd116100de57806323b872dd146101aa5780632de38d68146101c657806342842e0e146101f6578063514dc8c6146102125761010b565b806301ffc9a71461011057806306fdde0314610140578063081812fc1461015e578063095ea7b31461018e575b600080fd5b61012a60048036038101906101259190611eb5565b610380565b6040516101379190611efd565b60405180910390f35b610148610462565b6040516101559190611fa8565b60405180910390f35b61017860048036038101906101739190612000565b6104f4565b604051610185919061206e565b60405180910390f35b6101a860048036038101906101a391906120b5565b61053a565b005b6101c460048036038101906101bf91906120f5565b610651565b005b6101e060048036038101906101db9190612000565b6106b1565b6040516101ed9190611fa8565b60405180910390f35b610210600480360381019061020b91906120f5565b6107a9565b005b61022c60048036038101906102279190612000565b6107c9565b6040516102399190611fa8565b60405180910390f35b61025c60048036038101906102579190612000565b6108c1565b604051610269919061206e565b60405180910390f35b61028c60048036038101906102879190612148565b610972565b6040516102999190612184565b60405180910390f35b6102aa610a29565b6040516102b79190611fa8565b60405180910390f35b6102da60048036038101906102d591906121cb565b610abb565b005b6102f660048036038101906102f19190612340565b610ad1565b005b610312600480360381019061030d9190612000565b610b33565b60405161031f9190611fa8565b60405180910390f35b610330610c45565b60405161033d9190611fa8565b60405180910390f35b61034e610c89565b005b61036a600480360381019061036591906123c3565b610e0e565b6040516103779190611efd565b60405180910390f35b60007f80ac58cd000000000000000000000000000000000000000000000000000000007bffffffffffffffffffffffffffffffffffffffffffffffffffffffff1916827bffffffffffffffffffffffffffffffffffffffffffffffffffffffff1916148061044b57507f5b5e139f000000000000000000000000000000000000000000000000000000007bffffffffffffffffffffffffffffffffffffffffffffffffffffffff1916827bffffffffffffffffffffffffffffffffffffffffffffffffffffffff1916145b8061045b575061045a82610f3b565b5b9050919050565b60606000805461047190612432565b80601f016020809104026020016040519081016040528092919081815260200182805461049d90612432565b80156104ea5780601f106104bf576101008083540402835291602001916104ea565b820191906000526020600020905b8154815290600101906020018083116104cd57829003601f168201915b5050505050905090565b60006104ff82610fa5565b6004600083815260200190815260200160002060009054906101000a900473ffffffffffffffffffffffffffffffffffffffff169050919050565b6000610545826108c1565b90508073ffffffffffffffffffffffffffffffffffffffff168373ffffffffffffffffffffffffffffffffffffffff16036105b5576040517f08c379a00000000000000000000000000000000000000000000000000000000081526004016105ac906124d5565b60405180910390fd5b8073ffffffffffffffffffffffffffffffffffffffff166105d4610ff0565b73ffffffffffffffffffffffffffffffffffffffff1614806106035750610602816105fd610ff0565b610e0e565b5b610642576040517f08c379a000000000000000000000000000000000000000000000000000000000815260040161063990612567565b60405180910390fd5b61064c8383610ff8565b505050565b61066261065c610ff0565b826110b1565b6106a1576040517f08c379a0000000000000000000000000000000000000000000000000000000008152600401610698906125f9565b60405180910390fd5b6106ac838383611146565b505050565b606060006106e56106c1846113ac565b6040516020016106d191906126a1565b60405160208183030381529060405261150c565b9050600b80549050816106f891906126f2565b9050600b818154811061070e5761070d612723565b5b90600052602060002001805461072390612432565b80601f016020809104026020016040519081016040528092919081815260200182805461074f90612432565b801561079c5780601f106107715761010080835404028352916020019161079c565b820191906000526020600020905b81548152906001019060200180831161077f57829003601f168201915b5050505050915050919050565b6107c483838360405180602001604052806000815250610ad1565b505050565b606060006107fd6107d9846113ac565b6040516020016107e9919061279e565b60405160208183030381529060405261150c565b9050600d805490508161081091906126f2565b9050600d818154811061082657610825612723565b5b90600052602060002001805461083b90612432565b80601f016020809104026020016040519081016040528092919081815260200182805461086790612432565b80156108b45780601f10610889576101008083540402835291602001916108b4565b820191906000526020600020905b81548152906001019060200180831161089757829003601f168201915b5050505050915050919050565b6000806002600084815260200190815260200160002060009054906101000a900473ffffffffffffffffffffffffffffffffffffffff169050600073ffffffffffffffffffffffffffffffffffffffff168173ffffffffffffffffffffffffffffffffffffffff1603610969576040517f08c379a00000000000000000000000000000000000000000000000000000000081526004016109609061280c565b60405180910390fd5b80915050919050565b60008073ffffffffffffffffffffffffffffffffffffffff168273ffffffffffffffffffffffffffffffffffffffff16036109e2576040517f08c379a00000000000000000000000000000000000000000000000000000000081526004016109d99061289e565b60405180910390fd5b600360008373ffffffffffffffffffffffffffffffffffffffff1673ffffffffffffffffffffffffffffffffffffffff168152602001908152602001600020549050919050565b606060018054610a3890612432565b80601f0160208091040260200160405190810160405280929190818152602001828054610a6490612432565b8015610ab15780601f10610a8657610100808354040283529160200191610ab1565b820191906000526020600020905b815481529060010190602001808311610a9457829003601f168201915b5050505050905090565b610acd610ac6610ff0565b838361153f565b5050565b610ae2610adc610ff0565b836110b1565b610b21576040517f08c379a0000000000000000000000000000000000000000000000000000000008152600401610b18906125f9565b60405180910390fd5b610b2d848484846116ab565b50505050565b6060610b3e82610fa5565b6000600660008481526020019081526020016000208054610b5e90612432565b80601f0160208091040260200160405190810160405280929190818152602001828054610b8a90612432565b8015610bd75780601f10610bac57610100808354040283529160200191610bd7565b820191906000526020600020905b815481529060010190602001808311610bba57829003601f168201915b505050505090506000610be8611707565b90506000815103610bfd578192505050610c40565b600082511115610c32578082604051602001610c1a9291906128be565b60405160208183030381529060405292505050610c40565b610c3b8461171e565b925050505b919050565b6060610c59610c546007611786565b6113ac565b610c646008546113ac565b604051602001610c7592919061292e565b604051602081830303815290604052905090565b600854610c966007611786565b10610cd6576040517f08c379a0000000000000000000000000000000000000000000000000000000008152600401610ccd906129a9565b60405180910390fd5b6000610ce26007611786565b90506000610cef826106b1565b9050600081600c604051602001610d07929190612a61565b60405160208183030381529060405290506000610d23846107c9565b90506000600982600a86600c604051602001610d43959493929190612ad1565b60405160208183030381529060405290506000610d8884610d6384611794565b604051602001610d74929190612c7d565b604051602081830303815290604052611794565b9050600081604051602001610d9d9190612d0e565b6040516020818303038152906040529050610db8338861192b565b610dc28782611949565b610dcc60076119b6565b7f7e52a895000ba8d9d2c579c0a485b9e303ef63719fac4634c4ec61903cdc25643388604051610dfd929190612d30565b60405180910390a150505050505050565b6000600560008473ffffffffffffffffffffffffffffffffffffffff1673ffffffffffffffffffffffffffffffffffffffff16815260200190815260200160002060008373ffffffffffffffffffffffffffffffffffffffff1673ffffffffffffffffffffffffffffffffffffffff16815260200190815260200160002060009054906101000a900460ff16905092915050565b610f3881604051602401610eb69190611fa8565b6040516020818303038152906040527f41304fac000000000000000000000000000000000000000000000000000000007bffffffffffffffffffffffffffffffffffffffffffffffffffffffff19166020820180517bffffffffffffffffffffffffffffffffffffffffffffffffffffffff83818316178352505050506119cc565b50565b60007f01ffc9a7000000000000000000000000000000000000000000000000000000007bffffffffffffffffffffffffffffffffffffffffffffffffffffffff1916827bffffffffffffffffffffffffffffffffffffffffffffffffffffffff1916149050919050565b610fae816119f5565b610fed576040517f08c379a0000000000000000000000000000000000000000000000000000000008152600401610fe49061280c565b60405180910390fd5b50565b600033905090565b816004600083815260200190815260200160002060006101000a81548173ffffffffffffffffffffffffffffffffffffffff021916908373ffffffffffffffffffffffffffffffffffffffff160217905550808273ffffffffffffffffffffffffffffffffffffffff1661106b836108c1565b73ffffffffffffffffffffffffffffffffffffffff167f8c5be1e5ebec7d5bd14f71427d1e84f3dd0314c0f7b2291e5b200ac8c7c3b92560405160405180910390a45050565b6000806110bd836108c1565b90508073ffffffffffffffffffffffffffffffffffffffff168473ffffffffffffffffffffffffffffffffffffffff1614806110ff57506110fe8185610e0e565b5b8061113d57508373ffffffffffffffffffffffffffffffffffffffff16611125846104f4565b73ffffffffffffffffffffffffffffffffffffffff16145b91505092915050565b8273ffffffffffffffffffffffffffffffffffffffff16611166826108c1565b73ffffffffffffffffffffffffffffffffffffffff16146111bc576040517f08c379a00000000000000000000000000000000000000000000000000000000081526004016111b390612dcb565b60405180910390fd5b600073ffffffffffffffffffffffffffffffffffffffff168273ffffffffffffffffffffffffffffffffffffffff160361122b576040517f08c379a000000000000000000000000000000000000000000000000000000000815260040161122290612e5d565b60405180910390fd5b611236838383611a61565b611241600082610ff8565b6001600360008573ffffffffffffffffffffffffffffffffffffffff1673ffffffffffffffffffffffffffffffffffffffff16815260200190815260200160002060008282546112919190612eac565b925050819055506001600360008473ffffffffffffffffffffffffffffffffffffffff1673ffffffffffffffffffffffffffffffffffffffff16815260200190815260200160002060008282546112e89190612ee0565b92505081905550816002600083815260200190815260200160002060006101000a81548173ffffffffffffffffffffffffffffffffffffffff021916908373ffffffffffffffffffffffffffffffffffffffff160217905550808273ffffffffffffffffffffffffffffffffffffffff168473ffffffffffffffffffffffffffffffffffffffff167fddf252ad1be2c89b69c2b068fc378daa952ba7f163c4a11628f55a4df523b3ef60405160405180910390a46113a7838383611a66565b505050565b6060600082036113f3576040518060400160405280600181526020017f30000000000000000000000000000000000000000000000000000000000000008152509050611507565b600082905060005b6000821461142557808061140e90612f14565b915050600a8261141e9190612f5c565b91506113fb565b60008167ffffffffffffffff81111561144157611440612215565b5b6040519080825280601f01601f1916602001820160405280156114735781602001600182028036833780820191505090505b5090505b600085146115005760018261148c9190612eac565b9150600a8561149b91906126f2565b60306114a79190612ee0565b60f81b8183815181106114bd576114bc612723565b5b60200101907effffffffffffffffffffffffffffffffffffffffffffffffffffffffffffff1916908160001a905350600a856114f99190612f5c565b9450611477565b8093505050505b919050565b60008160405160200161151f9190612f8d565b6040516020818303038152906040528051906020012060001c9050919050565b8173ffffffffffffffffffffffffffffffffffffffff168373ffffffffffffffffffffffffffffffffffffffff16036115ad576040517f08c379a00000000000000000000000000000000000000000000000000000000081526004016115a490612ff0565b60405180910390fd5b80600560008573ffffffffffffffffffffffffffffffffffffffff1673ffffffffffffffffffffffffffffffffffffffff16815260200190815260200160002060008473ffffffffffffffffffffffffffffffffffffffff1673ffffffffffffffffffffffffffffffffffffffff16815260200190815260200160002060006101000a81548160ff0219169083151502179055508173ffffffffffffffffffffffffffffffffffffffff168373ffffffffffffffffffffffffffffffffffffffff167f17307eab39ab6107e8899845ad3d59bd9653f200f220920489ca2b5937696c318360405161169e9190611efd565b60405180910390a3505050565b6116b6848484611146565b6116c284848484611a6b565b611701576040517f08c379a00000000000000000000000000000000000000000000000000000000081526004016116f890613082565b60405180910390fd5b50505050565b606060405180602001604052806000815250905090565b606061172982610fa5565b6000611733611707565b90506000815111611753576040518060200160405280600081525061177e565b8061175d846113ac565b60405160200161176e9291906128be565b6040516020818303038152906040525b915050919050565b600081600001549050919050565b6060600082519050600081036117bc5760405180602001604052806000815250915050611926565b600060036002836117cd9190612ee0565b6117d79190612f5c565b60046117e391906130a2565b905060006020826117f49190612ee0565b67ffffffffffffffff81111561180d5761180c612215565b5b6040519080825280601f01601f19166020018201604052801561183f5781602001600182028036833780820191505090505b509050600060405180606001604052806040815260200161359b604091399050600181016020830160005b868110156118e35760038101905062ffffff818a015116603f8160121c168401518060081b905060ff603f83600c1c1686015116810190508060081b905060ff603f8360061c1686015116810190508060081b905060ff603f831686015116810190508060e01b9050808452600484019350505061186a565b5060038606600181146118fd576002811461190d57611918565b613d3d60f01b6002830352611918565b603d60f81b60018303525b508484525050819450505050505b919050565b611945828260405180602001604052806000815250611bf2565b5050565b611952826119f5565b611991576040517f08c379a000000000000000000000000000000000000000000000000000000000815260040161198890613156565b60405180910390fd5b806006600084815260200190815260200160002090816119b1919061330d565b505050565b6001816000016000828254019250508190555050565b60008151905060006a636f6e736f6c652e6c6f679050602083016000808483855afa5050505050565b60008073ffffffffffffffffffffffffffffffffffffffff166002600084815260200190815260200160002060009054906101000a900473ffffffffffffffffffffffffffffffffffffffff1673ffffffffffffffffffffffffffffffffffffffff1614159050919050565b505050565b505050565b6000611a8c8473ffffffffffffffffffffffffffffffffffffffff16611c4d565b15611be5578373ffffffffffffffffffffffffffffffffffffffff1663150b7a02611ab5610ff0565b8786866040518563ffffffff1660e01b8152600401611ad79493929190613434565b6020604051808303816000875af1925050508015611b1357506040513d601f19601f82011682018060405250810190611b109190613495565b60015b611b95573d8060008114611b43576040519150601f19603f3d011682016040523d82523d6000602084013e611b48565b606091505b506000815103611b8d576040517f08c379a0000000000000000000000000000000000000000000000000000000008152600401611b8490613082565b60405180910390fd5b805181602001fd5b63150b7a0260e01b7bffffffffffffffffffffffffffffffffffffffffffffffffffffffff1916817bffffffffffffffffffffffffffffffffffffffffffffffffffffffff191614915050611bea565b600190505b949350505050565b611bfc8383611c70565b611c096000848484611a6b565b611c48576040517f08c379a0000000000000000000000000000000000000000000000000000000008152600401611c3f90613082565b60405180910390fd5b505050565b6000808273ffffffffffffffffffffffffffffffffffffffff163b119050919050565b600073ffffffffffffffffffffffffffffffffffffffff168273ffffffffffffffffffffffffffffffffffffffff1603611cdf576040517f08c379a0000000000000000000000000000000000000000000000000000000008152600401611cd69061350e565b60405180910390fd5b611ce8816119f5565b15611d28576040517f08c379a0000000000000000000000000000000000000000000000000000000008152600401611d1f9061357a565b60405180910390fd5b611d3460008383611a61565b6001600360008473ffffffffffffffffffffffffffffffffffffffff1673ffffffffffffffffffffffffffffffffffffffff1681526020019081526020016000206000828254611d849190612ee0565b92505081905550816002600083815260200190815260200160002060006101000a81548173ffffffffffffffffffffffffffffffffffffffff021916908373ffffffffffffffffffffffffffffffffffffffff160217905550808273ffffffffffffffffffffffffffffffffffffffff16600073ffffffffffffffffffffffffffffffffffffffff167fddf252ad1be2c89b69c2b068fc378daa952ba7f163c4a11628f55a4df523b3ef60405160405180910390a4611e4560008383611a66565b5050565b6000604051905090565b600080fd5b600080fd5b60007fffffffff0000000000000000000000000000000000000000000000000000000082169050919050565b611e9281611e5d565b8114611e9d57600080fd5b50565b600081359050611eaf81611e89565b92915050565b600060208284031215611ecb57611eca611e53565b5b6000611ed984828501611ea0565b91505092915050565b60008115159050919050565b611ef781611ee2565b82525050565b6000602082019050611f126000830184611eee565b92915050565b600081519050919050565b600082825260208201905092915050565b60005b83811015611f52578082015181840152602081019050611f37565b60008484015250505050565b6000601f19601f8301169050919050565b6000611f7a82611f18565b611f848185611f23565b9350611f94818560208601611f34565b611f9d81611f5e565b840191505092915050565b60006020820190508181036000830152611fc28184611f6f565b905092915050565b6000819050919050565b611fdd81611fca565b8114611fe857600080fd5b50565b600081359050611ffa81611fd4565b92915050565b60006020828403121561201657612015611e53565b5b600061202484828501611feb565b91505092915050565b600073ffffffffffffffffffffffffffffffffffffffff82169050919050565b60006120588261202d565b9050919050565b6120688161204d565b82525050565b6000602082019050612083600083018461205f565b92915050565b6120928161204d565b811461209d57600080fd5b50565b6000813590506120af81612089565b92915050565b600080604083850312156120cc576120cb611e53565b5b60006120da858286016120a0565b92505060206120eb85828601611feb565b9150509250929050565b60008060006060848603121561210e5761210d611e53565b5b600061211c868287016120a0565b935050602061212d868287016120a0565b925050604061213e86828701611feb565b9150509250925092565b60006020828403121561215e5761215d611e53565b5b600061216c848285016120a0565b91505092915050565b61217e81611fca565b82525050565b60006020820190506121996000830184612175565b92915050565b6121a881611ee2565b81146121b357600080fd5b50565b6000813590506121c58161219f565b92915050565b600080604083850312156121e2576121e1611e53565b5b60006121f0858286016120a0565b9250506020612201858286016121b6565b9150509250929050565b600080fd5b600080fd5b7f4e487b7100000000000000000000000000000000000000000000000000000000600052604160045260246000fd5b61224d82611f5e565b810181811067ffffffffffffffff8211171561226c5761226b612215565b5b80604052505050565b600061227f611e49565b905061228b8282612244565b919050565b600067ffffffffffffffff8211156122ab576122aa612215565b5b6122b482611f5e565b9050602081019050919050565b82818337600083830152505050565b60006122e36122de84612290565b612275565b9050828152602081018484840111156122ff576122fe612210565b5b61230a8482856122c1565b509392505050565b600082601f8301126123275761232661220b565b5b81356123378482602086016122d0565b91505092915050565b6000806000806080858703121561235a57612359611e53565b5b6000612368878288016120a0565b9450506020612379878288016120a0565b935050604061238a87828801611feb565b925050606085013567ffffffffffffffff8111156123ab576123aa611e58565b5b6123b787828801612312565b91505092959194509250565b600080604083850312156123da576123d9611e53565b5b60006123e8858286016120a0565b92505060206123f9858286016120a0565b9150509250929050565b7f4e487b7100000000000000000000000000000000000000000000000000000000600052602260045260246000fd5b6000600282049050600182168061244a57607f821691505b60208210810361245d5761245c612403565b5b50919050565b7f4552433732313a20617070726f76616c20746f2063757272656e74206f776e6560008201527f7200000000000000000000000000000000000000000000000000000000000000602082015250565b60006124bf602183611f23565b91506124ca82612463565b604082019050919050565b600060208201905081810360008301526124ee816124b2565b9050919050565b7f4552433732313a20617070726f76652063616c6c6572206973206e6f7420746f60008201527f6b656e206f776e6572206e6f7220617070726f76656420666f7220616c6c0000602082015250565b6000612551603e83611f23565b915061255c826124f5565b604082019050919050565b6000602082019050818103600083015261258081612544565b9050919050565b7f4552433732313a2063616c6c6572206973206e6f7420746f6b656e206f776e6560008201527f72206e6f7220617070726f766564000000000000000000000000000000000000602082015250565b60006125e3602e83611f23565b91506125ee82612587565b604082019050919050565b60006020820190508181036000830152612612816125d6565b9050919050565b600081905092915050565b7f424c455353454400000000000000000000000000000000000000000000000000600082015250565b600061265a600783612619565b915061266582612624565b600782019050919050565b600061267b82611f18565b6126858185612619565b9350612695818560208601611f34565b80840191505092915050565b60006126ac8261264d565b91506126b88284612670565b915081905092915050565b7f4e487b7100000000000000000000000000000000000000000000000000000000600052601260045260246000fd5b60006126fd82611fca565b915061270883611fca565b925082612718576127176126c3565b5b828206905092915050565b7f4e487b7100000000000000000000000000000000000000000000000000000000600052603260045260246000fd5b7f434f4c4f52000000000000000000000000000000000000000000000000000000600082015250565b6000612788600583612619565b915061279382612752565b600582019050919050565b60006127a98261277b565b91506127b58284612670565b915081905092915050565b7f4552433732313a20696e76616c696420746f6b656e2049440000000000000000600082015250565b60006127f6601883611f23565b9150612801826127c0565b602082019050919050565b60006020820190508181036000830152612825816127e9565b9050919050565b7f4552433732313a2061646472657373207a65726f206973206e6f74206120766160008201527f6c6964206f776e65720000000000000000000000000000000000000000000000602082015250565b6000612888602983611f23565b91506128938261282c565b604082019050919050565b600060208201905081810360008301526128b78161287b565b9050919050565b60006128ca8285612670565b91506128d68284612670565b91508190509392505050565b7f202f200000000000000000000000000000000000000000000000000000000000600082015250565b6000612918600383612619565b9150612923826128e2565b600382019050919050565b600061293a8285612670565b91506129458261290b565b91506129518284612670565b91508190509392505050565b7f4d617820746f6b656e73206d696e746564000000000000000000000000000000600082015250565b6000612993601183611f23565b915061299e8261295d565b602082019050919050565b600060208201905081810360008301526129c281612986565b9050919050565b60008190508160005260206000209050919050565b600081546129eb81612432565b6129f58186612619565b94506001821660008114612a105760018114612a2557612a58565b60ff1983168652811515820286019350612a58565b612a2e856129c9565b60005b83811015612a5057815481890152600182019150602081019050612a31565b838801955050505b50505092915050565b6000612a6d8285612670565b9150612a7982846129de565b91508190509392505050565b7f3c2f746578743e3c2f7376673e00000000000000000000000000000000000000600082015250565b6000612abb600d83612619565b9150612ac682612a85565b600d82019050919050565b6000612add82886129de565b9150612ae98287612670565b9150612af582866129de565b9150612b018285612670565b9150612b0d82846129de565b9150612b1882612aae565b91508190509695505050505050565b7f7b226e616d65223a202200000000000000000000000000000000000000000000600082015250565b6000612b5d600a83612619565b9150612b6882612b27565b600a82019050919050565b7f222c20226465736372697074696f6e223a20224120686967686c79206163636c60008201527f61696d656420636f6c6c656374696f6e206f662076657262732e222c2022696d60208201527f616765223a2022646174613a696d6167652f7376672b786d6c3b62617365363460408201527f2c00000000000000000000000000000000000000000000000000000000000000606082015250565b6000612c1b606183612619565b9150612c2682612b73565b606182019050919050565b7f227d000000000000000000000000000000000000000000000000000000000000600082015250565b6000612c67600283612619565b9150612c7282612c31565b600282019050919050565b6000612c8882612b50565b9150612c948285612670565b9150612c9f82612c0e565b9150612cab8284612670565b9150612cb682612c5a565b91508190509392505050565b7f646174613a6170706c69636174696f6e2f6a736f6e3b6261736536342c000000600082015250565b6000612cf8601d83612619565b9150612d0382612cc2565b601d82019050919050565b6000612d1982612ceb565b9150612d258284612670565b915081905092915050565b6000604082019050612d45600083018561205f565b612d526020830184612175565b9392505050565b7f4552433732313a207472616e736665722066726f6d20696e636f72726563742060008201527f6f776e6572000000000000000000000000000000000000000000000000000000602082015250565b6000612db5602583611f23565b9150612dc082612d59565b604082019050919050565b60006020820190508181036000830152612de481612da8565b9050919050565b7f4552433732313a207472616e7366657220746f20746865207a65726f2061646460008201527f7265737300000000000000000000000000000000000000000000000000000000602082015250565b6000612e47602483611f23565b9150612e5282612deb565b604082019050919050565b60006020820190508181036000830152612e7681612e3a565b9050919050565b7f4e487b7100000000000000000000000000000000000000000000000000000000600052601160045260246000fd5b6000612eb782611fca565b9150612ec283611fca565b9250828203905081811115612eda57612ed9612e7d565b5b92915050565b6000612eeb82611fca565b9150612ef683611fca565b9250828201905080821115612f0e57612f0d612e7d565b5b92915050565b6000612f1f82611fca565b91507fffffffffffffffffffffffffffffffffffffffffffffffffffffffffffffffff8203612f5157612f50612e7d565b5b600182019050919050565b6000612f6782611fca565b9150612f7283611fca565b925082612f8257612f816126c3565b5b828204905092915050565b6000612f998284612670565b915081905092915050565b7f4552433732313a20617070726f766520746f2063616c6c657200000000000000600082015250565b6000612fda601983611f23565b9150612fe582612fa4565b602082019050919050565b6000602082019050818103600083015261300981612fcd565b9050919050565b7f4552433732313a207472616e7366657220746f206e6f6e20455243373231526560008201527f63656976657220696d706c656d656e7465720000000000000000000000000000602082015250565b600061306c603283611f23565b915061307782613010565b604082019050919050565b6000602082019050818103600083015261309b8161305f565b9050919050565b60006130ad82611fca565b91506130b883611fca565b92508282026130c681611fca565b915082820484148315176130dd576130dc612e7d565b5b5092915050565b7f45524337323155524953746f726167653a2055524920736574206f66206e6f6e60008201527f6578697374656e7420746f6b656e000000000000000000000000000000000000602082015250565b6000613140602e83611f23565b915061314b826130e4565b604082019050919050565b6000602082019050818103600083015261316f81613133565b9050919050565b60006020601f8301049050919050565b600082821b905092915050565b6000600883026131c37fffffffffffffffffffffffffffffffffffffffffffffffffffffffffffffffff82613186565b6131cd8683613186565b95508019841693508086168417925050509392505050565b6000819050919050565b600061320a61320561320084611fca565b6131e5565b611fca565b9050919050565b6000819050919050565b613224836131ef565b61323861323082613211565b848454613193565b825550505050565b600090565b61324d613240565b61325881848461321b565b505050565b5b8181101561327c57613271600082613245565b60018101905061325e565b5050565b601f8211156132c157613292816129c9565b61329b84613176565b810160208510156132aa578190505b6132be6132b685613176565b83018261325d565b50505b505050565b600082821c905092915050565b60006132e4600019846008026132c6565b1980831691505092915050565b60006132fd83836132d3565b9150826002028217905092915050565b61331682611f18565b67ffffffffffffffff81111561332f5761332e612215565b5b6133398254612432565b613344828285613280565b600060209050601f8311600181146133775760008415613365578287015190505b61336f85826132f1565b8655506133d7565b601f198416613385866129c9565b60005b828110156133ad57848901518255600182019150602085019450602081019050613388565b868310156133ca57848901516133c6601f8916826132d3565b8355505b6001600288020188555050505b505050505050565b600081519050919050565b600082825260208201905092915050565b6000613406826133df565b61341081856133ea565b9350613420818560208601611f34565b61342981611f5e565b840191505092915050565b6000608082019050613449600083018761205f565b613456602083018661205f565b6134636040830185612175565b818103606083015261347581846133fb565b905095945050505050565b60008151905061348f81611e89565b92915050565b6000602082840312156134ab576134aa611e53565b5b60006134b984828501613480565b91505092915050565b7f4552433732313a206d696e7420746f20746865207a65726f2061646472657373600082015250565b60006134f8602083611f23565b9150613503826134c2565b602082019050919050565b60006020820190508181036000830152613527816134eb565b9050919050565b7f4552433732313a20746f6b656e20616c7265616479206d696e74656400000000600082015250565b6000613564601c83611f23565b915061356f8261352e565b602082019050919050565b6000602082019050818103600083015261359381613557565b905091905056fe4142434445464748494a4b4c4d4e4f505152535455565758595a6162636465666768696a6b6c6d6e6f707172737475767778797a303132333435363738392b2fa26469706673582212209c8244dbb3fa78a24479566ee8853dd3130746b624be8954374cdee034d219a164736f6c634300081100333c73766720786d6c6e733d27687474703a2f2f7777772e77332e6f72672f323030302f73766727207072657365727665417370656374526174696f3d27784d696e594d696e206d656574272076696577426f783d273020302033353020333530273e3c7374796c653e2e62617365207b2066696c6c3a2077686974653b20666f6e742d66616d696c793a2073657269663b20666f6e742d73697a653a20323470783b207d3c2f7374796c653e3c726563742077696474683d273130302527206865696768743d2731303025272066696c6c3d27272f3e3c7465787420783d273530252720793d273530252720636c6173733d27626173652720646f6d696e616e742d626173656c696e653d276d6964646c652720746578742d616e63686f723d276d6964646c65273e",
  "linkReferences": {},
  "deployedLinkReferences": {}
}